{
  "_format": "hh-sol-artifact-1",
  "contractName": "Airdrop",
  "sourceName": "contracts/MerkleAirdrop.sol",
  "abi": [
    {
      "inputs": [
        {
          "internalType": "address",
          "name": "_tokenAddress",
          "type": "address"
        },
        {
          "internalType": "bytes32",
          "name": "_merkleRoot",
          "type": "bytes32"
        }
      ],
      "stateMutability": "nonpayable",
      "type": "constructor"
    },
    {
      "anonymous": false,
      "inputs": [
        {
          "indexed": false,
          "internalType": "address",
          "name": "",
          "type": "address"
        },
        {
          "indexed": false,
          "internalType": "uint256",
          "name": "",
          "type": "uint256"
        }
      ],
      "name": "ClaimSuccessful",
      "type": "event"
    },
    {
      "inputs": [
        {
          "internalType": "address",
          "name": "user_address",
          "type": "address"
        },
        {
          "internalType": "uint256",
          "name": "_amount",
          "type": "uint256"
        },
        {
          "internalType": "bytes32[]",
          "name": "_proof",
          "type": "bytes32[]"
        }
      ],
      "name": "claim",
      "outputs": [],
      "stateMutability": "nonpayable",
      "type": "function"
    },
    {
      "inputs": [
        {
          "internalType": "address",
          "name": "",
          "type": "address"
        }
      ],
      "name": "claimed",
      "outputs": [
        {
          "internalType": "bool",
          "name": "",
          "type": "bool"
        }
      ],
      "stateMutability": "view",
      "type": "function"
    },
    {
      "inputs": [],
      "name": "getOwnerBalance",
      "outputs": [
        {
          "internalType": "uint256",
          "name": "",
          "type": "uint256"
        }
      ],
      "stateMutability": "view",
      "type": "function"
    },
    {
      "inputs": [],
      "name": "merkleRoot",
      "outputs": [
        {
          "internalType": "bytes32",
          "name": "",
          "type": "bytes32"
        }
      ],
      "stateMutability": "view",
      "type": "function"
    },
    {
      "inputs": [],
      "name": "owner",
      "outputs": [
        {
          "internalType": "address",
          "name": "",
          "type": "address"
        }
      ],
      "stateMutability": "view",
      "type": "function"
    },
    {
      "inputs": [],
      "name": "ownerWithdraw",
      "outputs": [],
      "stateMutability": "nonpayable",
      "type": "function"
    },
    {
      "inputs": [],
      "name": "tokenAddress",
      "outputs": [
        {
          "internalType": "contract IERC20",
          "name": "",
          "type": "address"
        }
      ],
      "stateMutability": "view",
      "type": "function"
    },
    {
      "inputs": [
        {
          "internalType": "bytes32",
          "name": "_merkleRoot",
          "type": "bytes32"
        }
      ],
      "name": "updateMerkleRoot",
      "outputs": [],
      "stateMutability": "nonpayable",
      "type": "function"
    }
  ],
  "bytecode": "0x60a06040523480156200001157600080fd5b50604051620012d7380380620012d783398181016040528101906200003791906200015f565b336000806101000a81548173ffffffffffffffffffffffffffffffffffffffff021916908373ffffffffffffffffffffffffffffffffffffffff1602179055508173ffffffffffffffffffffffffffffffffffffffff1660808173ffffffffffffffffffffffffffffffffffffffff1681525050806001819055505050620001a6565b600080fd5b600073ffffffffffffffffffffffffffffffffffffffff82169050919050565b6000620000ec82620000bf565b9050919050565b620000fe81620000df565b81146200010a57600080fd5b50565b6000815190506200011e81620000f3565b92915050565b6000819050919050565b620001398162000124565b81146200014557600080fd5b50565b60008151905062000159816200012e565b92915050565b60008060408385031215620001795762000178620000ba565b5b600062000189858286016200010d565b92505060206200019c8582860162000148565b9150509250929050565b6080516110f2620001e56000396000818161034b015281816104330152818161050d0152818161056a0152818161067b015261075e01526110f26000f3fe608060405234801561001057600080fd5b50600436106100885760003560e01c8063590791f21161005b578063590791f2146100ed5780638da5cb5b1461010b5780639d76ea5814610129578063c884ef831461014757610088565b80632eb4a7ab1461008d5780633d13f874146100ab5780634311de8f146100c75780634783f0ef146100d1575b600080fd5b610095610177565b6040516100a291906108f2565b60405180910390f35b6100c560048036038101906100c09190610b3a565b61017d565b005b6100cf610427565b005b6100eb60048036038101906100e69190610ba9565b610665565b005b6100f5610677565b6040516101029190610be5565b60405180910390f35b610113610738565b6040516101209190610c0f565b60405180910390f35b61013161075c565b60405161013e9190610c89565b60405180910390f35b610161600480360381019061015c9190610ca4565b610780565b60405161016e9190610cec565b60405180910390f35b60015481565b8273ffffffffffffffffffffffffffffffffffffffff163373ffffffffffffffffffffffffffffffffffffffff16146101eb576040517f08c379a00000000000000000000000000000000000000000000000000000000081526004016101e290610d64565b60405180910390fd5b600260008473ffffffffffffffffffffffffffffffffffffffff1673ffffffffffffffffffffffffffffffffffffffff16815260200190815260200160002060009054906101000a900460ff1615610278576040517f08c379a000000000000000000000000000000000000000000000000000000000815260040161026f90610dd0565b60405180910390fd5b6000838360405160200161028d929190610e59565b6040516020818303038152906040528051906020012090506102b282600154836107a0565b6102f1576040517f08c379a00000000000000000000000000000000000000000000000000000000081526004016102e890610ed1565b60405180910390fd5b6001600260008673ffffffffffffffffffffffffffffffffffffffff1673ffffffffffffffffffffffffffffffffffffffff16815260200190815260200160002060006101000a81548160ff0219169083151502179055507f000000000000000000000000000000000000000000000000000000000000000073ffffffffffffffffffffffffffffffffffffffff1663a9059cbb85856040518363ffffffff1660e01b81526004016103a4929190610ef1565b6020604051808303816000875af11580156103c3573d6000803e3d6000fd5b505050506040513d601f19601f820116820180604052508101906103e79190610f46565b507fbeb779560c5848506673db6c9a1b1db7e0743ec45055b4dd32313941b0808e7c8484604051610419929190610ef1565b60405180910390a150505050565b61042f6107b7565b60007f000000000000000000000000000000000000000000000000000000000000000073ffffffffffffffffffffffffffffffffffffffff166370a08231306040518263ffffffff1660e01b815260040161048a9190610c0f565b602060405180830381865afa1580156104a7573d6000803e3d6000fd5b505050506040513d601f19601f820116820180604052508101906104cb9190610f88565b1161050b576040517f08c379a000000000000000000000000000000000000000000000000000000000815260040161050290611001565b60405180910390fd5b7f000000000000000000000000000000000000000000000000000000000000000073ffffffffffffffffffffffffffffffffffffffff1663a9059cbb60008054906101000a900473ffffffffffffffffffffffffffffffffffffffff167f000000000000000000000000000000000000000000000000000000000000000073ffffffffffffffffffffffffffffffffffffffff166370a08231306040518263ffffffff1660e01b81526004016105c19190610c0f565b602060405180830381865afa1580156105de573d6000803e3d6000fd5b505050506040513d601f19601f820116820180604052508101906106029190610f88565b6040518363ffffffff1660e01b815260040161061f929190610ef1565b6020604051808303816000875af115801561063e573d6000803e3d6000fd5b505050506040513d601f19601f820116820180604052508101906106629190610f46565b50565b61066d6107b7565b8060018190555050565b60007f000000000000000000000000000000000000000000000000000000000000000073ffffffffffffffffffffffffffffffffffffffff166370a0823160008054906101000a900473ffffffffffffffffffffffffffffffffffffffff166040518263ffffffff1660e01b81526004016106f29190610c0f565b602060405180830381865afa15801561070f573d6000803e3d6000fd5b505050506040513d601f19601f820116820180604052508101906107339190610f88565b905090565b60008054906101000a900473ffffffffffffffffffffffffffffffffffffffff1681565b7f000000000000000000000000000000000000000000000000000000000000000081565b60026020528060005260406000206000915054906101000a900460ff1681565b6000826107ad8584610847565b1490509392505050565b60008054906101000a900473ffffffffffffffffffffffffffffffffffffffff1673ffffffffffffffffffffffffffffffffffffffff163373ffffffffffffffffffffffffffffffffffffffff1614610845576040517f08c379a000000000000000000000000000000000000000000000000000000000815260040161083c9061106d565b60405180910390fd5b565b60008082905060005b845181101561088c5761087d828683815181106108705761086f61108d565b5b6020026020010151610897565b91508080600101915050610850565b508091505092915050565b60008183106108af576108aa82846108c2565b6108ba565b6108b983836108c2565b5b905092915050565b600082600052816020526040600020905092915050565b6000819050919050565b6108ec816108d9565b82525050565b600060208201905061090760008301846108e3565b92915050565b6000604051905090565b600080fd5b600080fd5b600073ffffffffffffffffffffffffffffffffffffffff82169050919050565b600061094c82610921565b9050919050565b61095c81610941565b811461096757600080fd5b50565b60008135905061097981610953565b92915050565b6000819050919050565b6109928161097f565b811461099d57600080fd5b50565b6000813590506109af81610989565b92915050565b600080fd5b6000601f19601f8301169050919050565b7f4e487b7100000000000000000000000000000000000000000000000000000000600052604160045260246000fd5b610a03826109ba565b810181811067ffffffffffffffff82111715610a2257610a216109cb565b5b80604052505050565b6000610a3561090d565b9050610a4182826109fa565b919050565b600067ffffffffffffffff821115610a6157610a606109cb565b5b602082029050602081019050919050565b600080fd5b610a80816108d9565b8114610a8b57600080fd5b50565b600081359050610a9d81610a77565b92915050565b6000610ab6610ab184610a46565b610a2b565b90508083825260208201905060208402830185811115610ad957610ad8610a72565b5b835b81811015610b025780610aee8882610a8e565b845260208401935050602081019050610adb565b5050509392505050565b600082601f830112610b2157610b206109b5565b5b8135610b31848260208601610aa3565b91505092915050565b600080600060608486031215610b5357610b52610917565b5b6000610b618682870161096a565b9350506020610b72868287016109a0565b925050604084013567ffffffffffffffff811115610b9357610b9261091c565b5b610b9f86828701610b0c565b9150509250925092565b600060208284031215610bbf57610bbe610917565b5b6000610bcd84828501610a8e565b91505092915050565b610bdf8161097f565b82525050565b6000602082019050610bfa6000830184610bd6565b92915050565b610c0981610941565b82525050565b6000602082019050610c246000830184610c00565b92915050565b6000819050919050565b6000610c4f610c4a610c4584610921565b610c2a565b610921565b9050919050565b6000610c6182610c34565b9050919050565b6000610c7382610c56565b9050919050565b610c8381610c68565b82525050565b6000602082019050610c9e6000830184610c7a565b92915050565b600060208284031215610cba57610cb9610917565b5b6000610cc88482850161096a565b91505092915050565b60008115159050919050565b610ce681610cd1565b82525050565b6000602082019050610d016000830184610cdd565b92915050565b600082825260208201905092915050565b7f43616e7420636c61696d20666f72206f74686572730000000000000000000000600082015250565b6000610d4e601583610d07565b9150610d5982610d18565b602082019050919050565b60006020820190508181036000830152610d7d81610d41565b9050919050565b7f616c726561647920636c61696d65640000000000000000000000000000000000600082015250565b6000610dba600f83610d07565b9150610dc582610d84565b602082019050919050565b60006020820190508181036000830152610de981610dad565b9050919050565b60008160601b9050919050565b6000610e0882610df0565b9050919050565b6000610e1a82610dfd565b9050919050565b610e32610e2d82610941565b610e0f565b82525050565b6000819050919050565b610e53610e4e8261097f565b610e38565b82525050565b6000610e658285610e21565b601482019150610e758284610e42565b6020820191508190509392505050565b7f496e76616c69642070726f6f6600000000000000000000000000000000000000600082015250565b6000610ebb600d83610d07565b9150610ec682610e85565b602082019050919050565b60006020820190508181036000830152610eea81610eae565b9050919050565b6000604082019050610f066000830185610c00565b610f136020830184610bd6565b9392505050565b610f2381610cd1565b8114610f2e57600080fd5b50565b600081519050610f4081610f1a565b92915050565b600060208284031215610f5c57610f5b610917565b5b6000610f6a84828501610f31565b91505092915050565b600081519050610f8281610989565b92915050565b600060208284031215610f9e57610f9d610917565b5b6000610fac84828501610f73565b91505092915050565b7f496e73756666696369656e742066756e64730000000000000000000000000000600082015250565b6000610feb601283610d07565b9150610ff682610fb5565b602082019050919050565b6000602082019050818103600083015261101a81610fde565b9050919050565b7f756e617574686f72697a65640000000000000000000000000000000000000000600082015250565b6000611057600c83610d07565b915061106282611021565b602082019050919050565b600060208201905081810360008301526110868161104a565b9050919050565b7f4e487b7100000000000000000000000000000000000000000000000000000000600052603260045260246000fdfea26469706673582212201327ba166f73dbefb0249480159c359a75957dd210441c8b77b1e0cfc2c3a00564736f6c63430008180033",
  "linkReferences": {},
  "deployedLinkReferences": {}
}